:040000000C946A00F2
:100004000C9408010C941F010C9400000C943A0108
:100014000C9400000C9400000C9400000C9400005C
:100024000C9400000C9400000C94D2010C94000079
:100034000C9400000C9400000C9400000C9400003C
:100044000C9400000C9400000C9400000C9400002C
:100054001027E80364000A000100001000011000EA
:1000640001000000000100000000200030003F00FB
:1000740006005B004F0066006D007D0007007F00F6
:10008400670077007C0039005E007900710073001E
:1000940050726F6A65637420566572205230300066
:1000A4001B0252000000030D1E0001000200660046
:1000B4000A00040068002100600172000F0084013E
:1000C40094000800A001A4000100A901AC000000F4
:1000D400F894EE27ECBBF1E0FBBFEBBFE5BF8DE08E
:1000E400A2E0BB27ED938A95E9F780E094E0A0E6CF
:1000F400ED930197E9F7EEEAF0E085919591009789
:1001040061F0A591B59105901590BF01F00105909E
:100114000D920197E1F7FB01F0CFEFE5EDBFE4E0CD
:10012400EEBFC0E6D1E00C941902E5E9F1E0FA93E0
:10013400EA93E0E0EA93AAE0B0E00E949502E89432
:1001440021F820F80E94A5020895A4EAB1E0EAB5D6
:10015400EC93A5EAB1E0E8B5EC93A0EAB1E00BD1E9
:100164000895BA93AA93E199FECFE881F981FFBB80
:10017400EEBBE09AEDB348C0AA93E199FECFE981C2
:10018400FA81FFBBEEBBE881EDBBE29AE19A06C1BE
:100194001A9310E010E0113170F4F40131964F011C
:1001A4003197FA93EA93E12FF0E0EC57FE4FA081E8
:1001B400E3DF1F5FF0CF19910895AA931A93E981A1
:1001C400E03089F0D601CDDF1E2FE8B5F9B5A12FB7
:1001D400B0E0EA17FB0731F0DA92CA92E8B5F9B554
:1001E400AE2FCADF10C0D501BCDF1E2FEAB5FBB5A8
:1001F400A12FB0E0EA17FB0731F0BA92AA92EAB550
:10020400FBB5AE2FB9DF188122960895EA93FA93CD
:10021400EFB7EA93B09B04C0EAB5FBB5319603C0CF
:10022400EAB5FBB53197FBBDEABDEAB5FBB530973E
:1002340011F08D9A01C08D9816C0EA93FA93EFB726
:10024400EA93B19B04C0E8B5F9B5319603C0E8B5AB
:10025400F9B53197F9BDE8BDE8B5F9B5309711F0B6
:100264008C9A01C08C98E991EFBFF991E9911895A6
:100274000A921A92FA926A937A938A939A93AA9315
:10028400BA93EA93FA93EFB7EA93E6E0E4BD20FE6B
:1002940005C0E091A801EF5FE093A801E091A901F6
:1002A400A091A801AE1708F040DFF30131963F0199
:1002B4003197DF01E52DF0E0AE17BF070CF44DC018
:1002C40066247724C298C398C498A898A998AF982C
:1002D400E2E0E41558F4E8B5F9B50E94AB02E8B5DC
:1002E400F9B50E94B802E8B5F9B50AC0EAB5FBB59C
:1002F4000E94AB02EAB5FBB50E94B802EAB5FBB5B1
:10030400DF01EAE0F0E00E940703E093AC01E42D92
:100314004394E03021F40E94C502C29A1EC0E13029
:1003240021F40E94D102C39A18C0E23021F40E9441
:10033400DD02C49A12C0E33021F40E94C502A89AD7
:100344000CC0E43021F40E94D102A99A06C0E53021
:1003540021F40E94DD02AF9A4424E991EFBFF991A0
:10036400E991B991A9919991899179916991F990BA
:10037400199009901895BA93AA931A9310E010E073
:10038400183058F45D9BFECFA981BA81EE27A10FE6
:10039400BE1FEC91ECB91F5FF3CF1881239608952B
:1003A400AA93EA93FA93EFB7EA931A930A931BB1C9
:1003B4000CB1E12FEC7199F500939401AE9AA091E0
:1003C4009401AB3121F40E94A502689420F820FE28
:1003D40023C0A0919401AB3119F4E0919F0105C0B1
:1003E400E0919F01EF5FE0939F01F0E0EB56FE4F39
:1003F400A0919401A083AD3021F4A0919F01A53078
:1004040049F0A0919401AD3021F4A0919F01A7304F
:1004140009F002C0689421F8E0E0E09394010991A6
:100424001991E991EFBFF991E991A9911895EFEF2D
:10043400EABBEBBBECEFE7BBE8BBEFEFE4BBE0E010
:10044400E5BBE0E3E1BBE0E0E2BBE3BFE2BFECBF5E
:10045400E1EAEFBDEBE4EEBDE0E0EDBDECBDE7BDF0
:10046400E6BDEBBDEABDE9BDE8BDE2BDE4E0E5BD46
:10047400E6E0E4BDE0E0E3BDE0E4E9BFEBB7E06C57
:10048400EBBFEFE0E5BFE0E0E4BFE0ECEABFE0E0B3
:10049400EBB9E8E9EAB9E6E8E0BDE0E0E0BDE7E6AB
:1004A400E9B97894D4015DDEEF3F09F471DED5013A
:1004B40058DEF0E0FBBDEABDD60153DEF0E0F9BD45
:1004C400E8BDEAB5FBB5309709F48D98E8B5F9B500
:1004D400309709F48C98869902C0879B06C0869B46
:1004E40002C0A0E001C0A1E068DE21FE1AC0E091D4
:1004F4009701F0E0E335A0E0FA0789F0E334A0E0E7
:10050400FA0719F40E94E9020AC0E735A0E0FA07E5
:1005140031F40E94E902A0E050DEA1E04EDE15DED7
:1005240004DED9CFFFCFBA93AA93B981A8811096DC
:1005340031F0FC81EB816A8161931197E9F7EB81DA
:10054400FC8125960895E0E0E093A801E0939F01E3
:100554000895DF01E8EEF3E00E940703DF01E4E61B
:10056400F0E00E94F402E093AA010895DF01E4E6BA
:10057400F0E00E940703DF01EAE0F0E00E94F402E9
:10058400E093AB010895E091AA01A0E6B1E0F0E0A8
:10059400EE0FFF1FAE0FBF1FEC91EBBB0895E09170
:1005A400AB01A0E6B1E0F0E0EE0FFF1FAE0FBF1FFE
:1005B400EC91EBBB0895E091AC01A0E6B1E0F0E072
:1005C400EE0FFF1FAE0FBF1FEC91EBBB0895E09140
:1005D4009901F0E0FBBDEABDE0919A01F0E0F9BDBC
:1005E400E8BD08950024112490E1AA0FBB1F001C4C
:1005F400111C0E1A1F0A18F40E0E1F1E01C0A16052
:100604009A9599F7FD01D0010895ECDFFD01089555
:00000001FF
